:02000002B0004C
:10A0000040440020BDEE0B00198F0D0091EE0B00B7
:10A0100091EE0B0091EE0B0091EE0B0000000000A2
:10A020000000000000000000000000000DE90B002F
:10A0300091EE0B0000000000B9E80B0091EE0B0060
:10A04000BDE90B00350C0D00BDE90B00BDE90B00AF
:10A05000BDE90B00BDE90B00BDE90B00BDE90B003C
:10A06000BDE90B00BDE90B00BDE90B00BDE90B002C
:10A07000BDE90B00BDE90B00BDE90B00BDE90B001C
:10A08000BDE90B00BDE90B00BDE90B00BDE90B000C
:10A09000BDE90B00BDE90B00BDE90B00BDE90B00FC
:10A0A000BDE90B00BDE90B00BDE90B00BDE90B00EC
:10A0B000BDE90B00BDE90B00BDE90B00BDE90B00DC
:10A0C000BDE90B00BDE90B00BDE90B00BDE90B00CC
:10A0D000BDE90B00BDE90B00BDE90B00BDE90B00BC
:10A0E000BDE90B00BDE90B00BDE90B00BDE90B00AC
:10A0F000BDE90B00BDE90B00BDE90B00BDE90B009C
:10A1000081F0004102E000BF83F0004330B54FEA28
:10A1100041044FEA430594EA050F08BF90EA020F95
:10A120001FBF54EA000C55EA020C7FEA645C7FEA28
:10A13000655C00F0E2804FEA5454D4EB5555B8BF4B
:10A140006D420CDD2C4480EA020281EA030382EABC
:10A15000000083EA010180EA020281EA0303362D4E
:10A1600088BF30BD11F0004F4FEA01314FF4801C21
:10A170004CEA113102D0404261EB410113F0004F33
:10A180004FEA03334CEA133302D0524263EB4303EA
:10A1900094EA050F00F0A780A4F10104D5F1200E88
:10A1A0000DDB02FA0EFC22FA05F2801841F10001E3
:10A1B00003FA0EF2801843FA05F359410EE0A5F1B7
:10A1C00020050EF1200E012A03FA0EFC28BF4CF0E8
:10A1D000020C43FA05F3C01851EBE37101F000459E
:10A1E00007D54FF0000EDCF1000C7EEB00006EEBAB
:10A1F0000101B1F5801F1BD3B1F5001F0CD3490835
:10A200005FEA30004FEA3C0C04F101044FEA44528B
:10A2100012F5800F80F09A80BCF1004F08BF5FEA12
:10A22000500C50F1000041EB045141EA050130BDF2
:10A230005FEA4C0C404141EB0101013C28BFB1F504
:10A24000801FE9D291F0000F04BF01460020B1FA4F
:10A2500081F308BF2033A3F10B03B3F120020CDA22
:10A260000C3208DD02F1140CC2F10C0201FA0CF000
:10A2700021FA02F10CE002F11402D8BFC2F1200C65
:10A2800001FA02F120FA0CFCDCBF41EA0C0190401B
:10A29000E41AA2BF01EB0451294330BD6FEA040464
:10A2A0001F3C1CDA0C340EDC04F11404C4F120024F
:10A2B00020FA04F001FA02F340EA030021FA04F361
:10A2C00045EA030130BDC4F10C04C4F1200220FAB8
:10A2D00002F001FA04F340EA0300294630BD21FAF6
:10A2E00004F0294630BD94F0000F83F4801306BFBC
:10A2F00081F480110134013D4EE77FEA645C18BFB0
:10A300007FEA655C29D094EA050F08BF90EA020F46
:10A3100005D054EA000C04BF1946104630BD91EA3E
:10A32000030F1EBF0021002030BD5FEA545C05D141
:10A330004000494128BF41F0004130BD14F5800480
:10A340003CBF01F5801130BD01F0004545F0FE41F4
:10A3500041F470014FF0000030BD7FEA645C1ABF29
:10A36000194610467FEA655C1CBF0B46024650EA60
:10A37000013406BF52EA033591EA030F41F400218C
:10A3800030BD00BF90F0000F04BF0021704730B512
:10A390004FF4806404F132044FF000054FF00001E7
:10A3A00050E700BF90F0000F04BF0021704730B5A8
:10A3B0004FF4806404F1320410F0004548BF40427D
:10A3C0004FF000013EE700BF42004FEAE2014FEAD2
:10A3D00031014FEA02701FBF12F07F4393F07F4FAD
:10A3E00081F06051704732F07F4208BF704793F0B0
:10A3F0007F4F04BF41F40021704730B54FF46074C3
:10A4000001F0004521F000411CE700BF50EA0102C5
:10A4100008BF704730B54FF000050AE050EA01026E
:10A4200008BF704730B511F0004502D5404261EBDE
:10A4300041014FF4806404F132045FEA915C3FF41F
:10A44000D8AE4FF003025FEADC0C18BF03325FEABC
:10A45000DC0C18BF033202EBDC02C2F1200300FA6D
:10A4600003FC20FA02F001FA03FE40EA0E0021FA92
:10A4700002F11444BDE600BF70B54FF0FF0C4CF480
:10A48000E06C1CEA11541DBF1CEA135594EA0C0F32
:10A4900095EA0C0F00F0DEF82C4481EA030621EA6D
:10A4A0004C5123EA4C5350EA013518BF52EA0335A8
:10A4B00041F4801143F4801338D0A0FB02CE4FF05A
:10A4C0000005E1FB02E506F00042E0FB03E54FF08A
:10A4D0000006E1FB03569CF0000F18BF4EF0010E82
:10A4E000A4F1FF04B6F5007F64F5407404D25FEA7E
:10A4F0004E0E6D4146EB060642EAC62141EA555131
:10A500004FEAC52040EA5E504FEACE2EB4F1FD0C72
:10A5100088BFBCF5E06F1ED8BEF1004F08BF5FEAF0
:10A52000500E50F1000041EB045170BD06F00046A2
:10A5300046EA010140EA020081EA0301B4EB5C044F
:10A54000C2BFD4EB0C0541EA045170BD41F4801147
:10A550004FF0000E013C00F3AB8014F1360FDEBF6C
:10A56000002001F0004170BDC4F10004203C35DA48
:10A570000C341BDC04F11404C4F1200500FA05F3CB
:10A5800020FA04F001FA05F240EA020001F000426C
:10A5900021F0004110EBD37021FA04F642EB0601E2
:10A5A0005EEA430E08BF20EAD37070BDC4F10C040C
:10A5B000C4F1200500FA04F320FA05F001FA04F2D0
:10A5C00040EA020001F0004110EBD37041F10001BC
:10A5D0005EEA430E08BF20EAD37070BDC4F12005C7
:10A5E00000FA05F24EEA020E20FA04F301FA05F22F
:10A5F00043EA020321FA04F001F0004121FA04F2D7
:10A6000020EA020000EBD3705EEA430E08BF20EAA6
:10A61000D37070BD94F0000F0FD101F000464000E0
:10A6200041EB010111F4801F08BF013CF7D041EA62
:10A63000060195F0000F18BF704703F00046520066
:10A6400043EB030313F4801F08BF013DF7D043EA37
:10A650000603704794EA0C0F0CEA135518BF95EAED
:10A660000C0F0CD050EA410618BF52EA4306D1D174
:10A6700081EA030101F000414FF0000070BD50EA93
:10A68000410606BF1046194652EA430619D094EA1D
:10A690000C0F02D150EA013613D195EA0C0F05D107
:10A6A00052EA03361CBF104619460AD181EA03015B
:10A6B00001F0004141F0FE4141F470014FF0000013
:10A6C00070BD41F0FE4141F4780170BD70B54FF0AE
:10A6D000FF0C4CF4E06C1CEA11541DBF1CEA13552E
:10A6E00094EA0C0F95EA0C0F00F0A7F8A4EB050410
:10A6F00081EA030E52EA03354FEA013100F0888007
:10A700004FEA03334FF0805545EA131343EA1263CF
:10A710004FEA022245EA111545EA10654FEA002684
:10A720000EF000419D4208BF964244F1FD0404F53D
:10A73000407402D25B084FEA3202B61A65EB030599
:10A740005B084FEA32024FF480104FF4002CB6EB56
:10A75000020E75EB030E22BFB61A754640EA0C00D6
:10A760005B084FEA3202B6EB020E75EB030E22BF16
:10A77000B61A754640EA5C005B084FEA3202B6EB57
:10A78000020E75EB030E22BFB61A754640EA9C0016
:10A790005B084FEA3202B6EB020E75EB030E22BFE6
:10A7A000B61A754640EADC0055EA060E18D04FEAA4
:10A7B000051545EA16754FEA06164FEAC30343EA44
:10A7C00052734FEAC2025FEA1C1CC0D111F4801F11
:10A7D0000BD141EA00014FF000004FF0004CB6E70A
:10A7E00011F4801F04BF01430020B4F1FD0C88BFA9
:10A7F000BCF5E06F3FF6AFAEB5EB030C04BFB6EBB4
:10A80000020C5FEA500C50F1000041EB045170BDA6
:10A810000EF0004E4EEA113114EB5C04C2BFD4EBD3
:10A820000C0541EA045170BD41F480114FF0000E57
:10A83000013C90E645EA060E8DE60CEA135594EAD3
:10A840000C0F08BF95EA0C0F3FF43BAF94EA0C0FD6
:10A850000AD150EA01347FF434AF95EA0C0F7FF44B
:10A8600025AF104619462CE795EA0C0F06D152EA9F
:10A8700003353FF4FDAE1046194622E750EA410683
:10A8800018BF52EA43067FF4C5AE50EA41047FF494
:10A890000DAF52EA43057FF4EBAE12E74FF0FF3CF9
:10A8A00006E000BF4FF0010C02E000BF4FF0010CCA
:10A8B0004DF804CD4FEA410C7FEA6C5C4FEA430C43
:10A8C00018BF7FEA6C5C1BD001B050EA410C0CBF92
:10A8D00052EA430C91EA030F02BF90EA020F0020F4
:10A8E000704710F1000F91EA030F58BF994208BF5B
:10A8F00090422CBFD8176FEAE37040F00100704718
:10A900004FEA410C7FEA6C5C02D150EA013C07D16E
:10A910004FEA430C7FEA6C5CD6D152EA033CD3D0B9
:10A920005DF8040B704700BF8446104662468C46B3
:10A930001946634600E000BF01B5FFF7B7FF0028E6
:10A9400048BF10F1000F01BD4DF808EDFFF7F4FF0F
:10A950000CBF012000205DF808FB00BF4DF808ED9A
:10A96000FFF7EAFF34BF012000205DF808FB00BFBD
:10A970004DF808EDFFF7E0FF94BF012000205DF8DF
:10A9800008FB00BF4DF808EDFFF7CEFF94BF012094
:10A9900000205DF808FB00BF4DF808EDFFF7C4FF8D
:10A9A00034BF012000205DF808FB00BF4A0011D22F
:10A9B00012F5001211D20DD56FF47873B3EB625219
:10A9C0000ED44FEAC12343F0004343EA505323FA25
:10A9D00002F070474FF00000704750EA013002D19A
:10A9E0004FF0FF3070474FF00000704753B94AB93D
:10A9F000002908BF00281CBF4FF0FF314FF0FF3087
:10AA000000F00CB8ADF1080C6DE904CE00F008F8C8
:10AA1000DDF804E0DDE9022304B07047704700BFB1
:10AA20002DE9F04F07468C460846099E15463C46E0
:10AA30001946002B40F0C6808242B2FA82F746D90E
:10AA40004FB1C7F1200E24FA0EFE00FA07F3BD4005
:10AA50004EEA030CBC404FEA15481FFA85FEBCFBCA
:10AA6000F8F9220C08FB19C309FB0EFA42EA03436A
:10AA70009A4528D9EB1809F1FF3004D29A4502D93A
:10AA8000A9F102002B44A3EB0A03A4B2B3FBF8F232
:10AA900008FB123302FB0EFE44EA0344A64514D918
:10AAA0002C1902F1FF3303D2A64501D9931E2C4481
:10AAB000A4EB0E0443EA00401EB1FC4000233460C6
:10AAC0007360BDE8F08F4846DDE71346F0E702B952
:10AAD000FFDE87BB831A01214FEA154EAAB2B3FBF2
:10AAE000FEFC200C0EFB1C330CFB02F840EA034377
:10AAF000984563D9EB180CF1FF3004D2984502D980
:10AB0000ACF102002B44A3EB0803A4B2B3FBFEFCA0
:10AB10000EFB1C330CFB02F244EA0344A2424FD961
:10AB20002C190CF1FF3304D2A24202D9ACF102037A
:10AB30002C44A41ABEE7C7F1200C20FA0CF800FA46
:10AB400007F324FA0CFCBD404CEA03024FEA154E11
:10AB5000ABB2B8FBFEFC110C0EFB1C800CFB03F926
:10AB600041EA0040814504FA07F423D928180CF182
:10AB7000FF3104D2814502D9ACF102012844A0EB97
:10AB8000090092B2B0FBFEFC0EFB1C000CFB03F8AC
:10AB900042EA004398450FD9EB180CF1FF3204D27A
:10ABA000984502D9ACF102022B44A3EB080342EA18
:10ABB000014191E76146E2E76246F6E76046A2E7B7
:10ABC0006346B6E7834205D90EB1C6E9007000219D
:10ABD000084676E7B3FA83F181B9834201D3BA42DA
:10ABE0000AD8BC1A60EB030301209C46002E68D0F3
:10ABF000C6E9004C002164E70846F7E7C1F1200CE4
:10AC00008B4022FA0CF41C4302FA01F500FA01F31E
:10AC100027FA0CF220FA0CFB4FEA14491343BBFB52
:10AC2000F9F81FFA84FE09FB18BB1A0C08FB0EFA90
:10AC300042EA0B42924507FA01F73ED9A21808F101
:10AC4000FF3004D2924502D9A8F102002244A2EBBF
:10AC50000A029BB2B2FBF9F809FB182208FB0EFEB0
:10AC600043EA024296452AD9A21808F1FF3304D2DA
:10AC7000964502D9A8F10203224443EA0040A0FB12
:10AC80000593A2EB0E029A42CE46984602D306D115
:10AC90004F4504D2B9EB050E63EB0408013886B1C9
:10ACA000B7EB0E0362EB080707FA0CFCCB404CEA4B
:10ACB0000303CF40C6E900379CE74046C7E7434659
:10ACC000DBE73146FDE60000F7B53D4B1B78002B76
:10ACD0003FD03C4D2B78002B3BD13B4E3B4C30685A
:10ACE00000283DD13A4B0022D4E90001FFF70EFACB
:10ACF000384B002206460F46FFF726FE58BBC4E934
:10AD00000067D4E90023344804F0F8F9334B0022FB
:10AD1000D4E90001FFF7B0FBFFF748FE304A0346D5
:10AD2000C3F3072153701B0C9170D3702D49FE2380
:10AD300013712D4B4B602D4B8B602D4B0020C1E9C7
:10AD40000332107005238B8209F0EAF908B9012358
:10AD50002B7003B0F0BD274B0022C4E90023D0E7DD
:10AD600083683921DB689847014610B122481CF0FE
:10AD7000ECF8306883680C211B696A4698470146E5
:10AD800010B11E481CF0E1F80198FFF70BFB0AA375
:10AD9000D3E90023FFF79AFC064600980F46FFF719
:10ADA00001FB02460B4630463946FFF7AFF9C4E9CE
:10ADB0000001A6E7AFF300800000000080842E4170
:10ADC0005E2A00205D2A00209C0100200000002057
:10ADD0000000F03F00003E40F2DF0D00000059404F
:10ADE000582A002068150020B0C70D00B9C30B0019
:10ADF000A1C30B0000003440A5DF0D00CCDF0D0027
:10AE000070B5454DD5F85431996811F0010188B0FD
:10AE100021D103AA40F6034005F09CF9044600281E
:10AE200076D1039B9B681B7893B9BFF35B8F2B464E
:10AE300053F8CC2FBFF35B8F02F00502BFF35B8F9B
:10AE400053E8001F43E800200028F9D1BFF35B8FCF
:10AE5000039818F0A7FE03AA002141F2030005F0B1
:10AE600079F90446002853D1039B2C48996808229D
:10AE700001311EF0A1F8039818F094FE214603AAB0
:10AE800041F2010005F066F90446002840D103981C
:10AE900083685A7885F86820D9789A7842EA01223E
:10AEA000A5F86A201A7985F86920197ADA7942EAD0
:10AEB0000122A5F86C205A799B7942EA0323A5F870
:10AEC0006E3018F06FFE214603AA41F2020005F031
:10AED00041F90446E0B9039B1148996840220131C9
:10AEE0001EF06AF80E481EF013F9039818F05AFE87
:10AEF00095F874305A061BD40A4B0B490B48C91AF3
:10AF0000C908890141F001011CF0A8FB6FF012048F
:10AF1000204608B070BD00BF080000207800002067
:10AF200080000020E0C40D00C8C50D00A5EF0D0095
:10AF3000214603AA42F2030005F00CF9044600285A
:10AF4000E6D1039BAA489968082201311EF034F823
:10AF5000039818F027FE214603AA42F2020005F0EA
:10AF6000F9F804460028D3D1039B9B68B3F801206D
:10AF7000A5F8FC2091B221B1DA789E48114620F064
:10AF8000FBFC039818F00EFE95F8746016F020068E
:10AF900000F0F98095F894301B0712D503AA002120
:10AFA00042F21C0005F0D6F804460028B0D1039800
:10AFB0008368D3F80120D3F80530C5E9362318F0AB
:10AFC000F1FD95F8D0309E0624D502A90DF10600BA
:10AFD00005F03AF9044600289AD1042142F22400EF
:10AFE00004F058FF0646002800F0D4800421083001
:10AFF00020F0B1F8BDF806300380BDF8083043807A
:10B000002246314642F2240005F0A4F80446002806
:10B010007FF47EAF95F8D0305C0610D503AA0021EE
:10B0200042F22A0005F096F8044600287FF470AF3B
:10B03000039883685B7885F8183118F0B3FD082110
:10B0400042F2010004F026FF0446002800F0A2802E
:10B050000821084420F07FF895F8D01011F0400F37
:10B06000024640F2022308BF032388074CBF43F087
:10B070002C0043F00C008B0695F8D13048BF40F00F
:10B08000400013F0090F95F89A3018BF40F40060A3
:10B0900003F00603CE0748BF40F01000062B08BFA0
:10B0A00040F4C07000211EF0D7F82146002242F281
:10B0B000010005F04FF8044600287FF429AF95F809
:10B0C0007430B5F8FC10980679D4D9B903AA41F2C6
:10B0D000050005F03FF8044600287FF419AFB5F8E5
:10B0E000FC3063B9039B9B685A78997842EA012245
:10B0F000A5F8FC209A883F48114620F03DFC0398B3
:10B1000018F050FD082140F6014004F0C3FE04464B
:10B1100000283FD00821084420F01DF895F8D030D1
:10B12000D90702465AD530A1D1E900011EF094F8A2
:10B130002146002240F6014005F00CF804460028A4
:10B140007FF4E6AE014602AA4FF6014005F002F890
:10B15000294C2A4BE41AE408A401002856D02848B8
:10B1600044F002011CF07AFA06F0F8F804460028D0
:10B170007FF4CEAE07F088FB044600287FF4C8AE0B
:10B1800005F060FCC4E6022140F66D4004F082FE4A
:10B19000044610B96FF06804BAE6022108301FF0C7
:10B1A000DAFF0123037046702146324640F66D40B7
:10B1B00004F0D0FF044600283FF4ECAEA8E60029D6
:10B1C000A0D10E4B0C490F48C91AC908890141F09A
:10B1D00001011CF043FA6FF0040499E60A484FF0AD
:10B1E0000051A3E7AFF300809088000200800020A8
:10B1F000D800002008010020C8C50D00E0C40D00E3
:10B20000ECEF0D00C9EF0D0010880002029B3648DC
:10B210009E68B6F80120032A96BF3449344951F894
:10B22000221044F003031CF03AFAB6F80110B6F805
:10B230000320022944F003032ED1032A2CD82D49E0
:10B2400051F822102C481CF02AFA72792B48032A54
:10B2500096BF2B49264951F82210CDE90312B27945
:10B260000592B6F807200692D6F80920079244F016
:10B270000303052203A91CF047FA029818F092FC78
:10B2800002AA00214FF6024004F064FF064628B1EE
:10B290001C4844F0020165E71549D3E7029B1A48B0
:10B2A0009968022201311DF087FE029818F07AFC9D
:10B2B00095F8B9305B077FF557AF02AA31464FF6D4
:10B2C000034004F047FF18B1104844F0020149E779
:10B2D000029B0F489968012211441DF06DFE0298EF
:10B2E00018F060FC40E700BF10F00D009CCB0D0093
:10B2F000A9EA0D005CCB0D0029F00D0041F00D0016
:10B30000D4CB0D006EF00D00C100002097F00D00B1
:10B31000C0000020000000002DE9F041D0E90B350D
:10B32000866A5C193034A6428846174618D81C4DE8
:10B33000A3FB050118A3D3E90023FFF757FBA41BC8
:10B3400020F07F40C8F8000013A3D3E90023A4FB3A
:10B350000501FFF74BFB20F07F403860BDE8F0812E
:10B360000F4C0DA3D3E90023A6FB0401FFF73EFB1E
:10B3700005F1300120F07F40C8F8000006A3D3E9B2
:10B380000023A1FB0401FFF731FB20F07F40386070
:10B39000BDE8F081AFF300808D49FD1A0700000081
:10B3A00000CA9A3B000000002DE9F04FAB4C8FB073
:10B3B00094F86A20002800F0398112F0010740F06B
:10B3C000B78194F82500FF2300F0030084F82630AD
:10B3D00015F0D4F894F86A0041072DD494F8292088
:10B3E00094F8353004EB820204EB8303D2F82C800E
:10B3F000D3F83890B8F1000F11D0984841460FF0BB
:10B40000EFFB98F800305A0605D506210AF0C8FE71
:10B41000002800F0C981914849460FF0E1FB98F8F7
:10B42000003013F00E0F40F0EE80236A9BB10C2722
:10B4300038460FB0BDE8F08F3A4604F16B01C0F317
:10B44000C00015F001FAFF2884F82600C6D038465F
:10B4500015F0AEF8C2E70EF07DFA8246002800F043
:10B46000AD810EF083FA8346002800F0AC8110F025
:10B47000A5FA0546002800F0A381406F4FF6FF7340
:10B480002B8505F11C03002800F0948105F168026A
:10B4900005F164010B930AF08FFEB5F86020704B44
:10B4A00022F4EF6222F0070242F4887242F00102B5
:10B4B000A5F8602095F8392002F03F0262F07F0283
:10B4C00085F8392095F87A2022F0070285F87A204D
:10B4D00095F83C2022F0070285F83C2095F8D8200A
:10B4E00022F0070285F8D8204FF01B120026C5E98C
:10B4F00016230622A5F8C020C5E912666E67A5F8D6
:10B500007860EE852E6385F83B602E65A5F8C460F3
:10B51000A5F8C860A5F8D060A5F8CC60A5F8E460EF
:10B5200085F8E660C5F80861A5F80C61A5F820610A
:10B530000DF0F2FC95F83A21A5F8386122F00302EB
:10B5400085F83A2195F87A20A5F8406122F0180292
:10B5500085F87A2095F8662185F8436122F0070284
:10B5600085F8662195F88621C5F844A166F3451251
:10B5700085F8862195F8AE21A5F8646166F3C302CB
:10B58000C5E94A0100210020C5E94C0185F8AE213A
:10B5900085F8D960A5F88461C5F8E060A5F8AC61CC
:10B5A000A5F8B86110F050FDA5F8D20010F052FDDA
:10B5B000D5F8BC112B4AA5F8D4000A40C5F8BC2127
:10B5C00010F04EFD95F8C02160F3020285F8C0210D
:10B5D00010F04CFD0B9B236295F8C031C5F8C46197
:10B5E00060F3C503C4E918ABC5E97466C5E97266C2
:10B5F000C5E905662E70ED6185F8C03116F068F872
:10B60000002840F0D38094F824300121C3F3420392
:10B610000DF133008DF833300AF048FF20BB236A68
:10B62000002B3FF404AF0EF0AFFF00E712F001076C
:10B630003FF4FEAE236A5BB193F8202042F0020291
:10B6400083F82020236A93F82030D8073FF5EFAE27
:10B650000FB0BDE8F04F0EF0D9BF00BFAC1F002007
:10B66000480148010000FFF699F8011002464046E3
:10B670000FF070F85849B4F8689031230025A360A2
:10B68000A0FB010152A3D3E90023C4E905552570AD
:10B690006560E560FFF7AAF920610CF01FF8064627
:10B6A000B9F1000F08D198F8005005F00F05A5F189
:10B6B0000105B5FA85F56D0994F82400236965F351
:10B6C000000010F0010584F8240036D00020434A21
:10B6D000DFF80C91049302250DF1340801930592D3
:10B6E0000321CDE90200069433460090CDF8208076
:10B6F000CDF81C902A460D950BF024FF41460EF024
:10B70000DFF900288BD1374A05924AF2D8320092ED
:10B71000CDE90300CDE90100CDF81C90CDF82080E3
:10B7200006943346012203210D950BF00BFF2EE00A
:10B73000002738460FB0BDE8F08F2B4A2B48049302
:10B7400003F24713A9FB00010694029513609123AD
:10B7500003FB0911224B0793204B05934FF6FF7310
:10B7600009924FF0020903930DF1340818A3D3E9AD
:10B770000023CDF83490CDF82080FFF737F9334619
:10B78000CDE900504A46284603210BF085FE41468C
:10B790000EF096F900287FF442AF94F86A3043F037
:10B7A000010384F86A3043E6122741E60EF0ECFE0E
:10B7B00003273DE605F16C00686767E6072737E673
:10B7C00058460EF0D9F850460EF0CAF807272FE673
:10B7D0008D49FD1A0700000000CA9A3BC9A70C005A
:10B7E000B98F0C0019A30C0020200020002AE78448
:10B7F00070B590F824308AB0C3F342030D46044676
:10B8000001210DF1230016468DF823300AF04EFE7B
:10B810007178024628460EF09DFF1D491AA3D3E910
:10B820000023A0FB0101FFF7E1F8236998420546D8
:10B8300020D21B1A00220192164A0293164BA21A1A
:10B84000A3FB02320221920900230A4409AE0991A6
:10B8500012490591CDE903330321D2B20696009334
:10B8600018460BF0E1FE31460EF02AF948B9256181
:10B870000AB070BD02D9C21A0023DCE700200AB06A
:10B8800070BD0C200AB070BD8D49FD1A0700000084
:10B8900000CA9A3BAC1F002009CB3D8DB98F0C002C
:10B8A0002DE9F04FC38D468E1E4490F80E310E44A4
:10B8B00013F007038BB00446B6B240F0A581B0F890
:10B8C000E8909046A6EB09021FFA82FB120400F1F1
:10B8D0000D8290F93920002A0F46C0F2358194F884
:10B8E000E43084F8E53094F8842194F8853194F8B4
:10B8F0000C1184F80D11934206D094F8863103F0B0
:10B900000F03062B00F04882B14BD4F808511A6897
:10B91000944204BF00221A60002D00F04481286880
:10B92000002800F04081B4F81031B4F82AC0426811
:10B93000C4F808216345B4F81221B4F8141100F0DA
:10B940001781B4F828C0EB8319232B710023A5F8C5
:10B9500006C02A8469842B7729460EF013F80EF06E
:10B960001BF8A368002BC0F2F780608DB4F810516B
:10B9700010FB0BF080B2B0FBF5F115FB01F39BB2AD
:10B9800098421FFA81FAC0F0CE8005FB110140F207
:10B99000E243904889B203FB01F1A1FB00018AA3B5
:10B9A000D3E90023FFF722F8A8EB0008E18D94F912
:10B9B0003930A9EB0609D1440F444F44E785002BE9
:10B9C00040F2E24707FB05F6C0F29581824A8349BF
:10B9D000834840F667431BF0B8FA404080F3118873
:10B9E0004FF0030002DF0027B3467E4AB4F814315B
:10B9F0007D48B4F81211A1853244B2FBF6F2A4F8E6
:10BA0000C62042F2107202FB03633044013BB0FBDC
:10BA1000F6F0B3FBF6F6B4F81031638583B2881DF7
:10BA20008342A4F8C260A4F8CE3002DD5B1A063B64
:10BA30009BB2A4F8CA3094F80E311B0744BF002310
:10BA4000A4F8C4300221012017F0F0FD00220221E9
:10BA5000814601200AF000FC64494FF4F072204650
:10BA60000AF08AFB00F1030A5FFA8AFA604B00943D
:10BA70005246012100200BF0EFFD30F002030CD004
:10BA8000554A5C49564840F696431BF05EFA4040E2
:10BA900080F311884FF0030002DF4E4EABFB066BC4
:10BAA00049A3D3E9002330465946FEF79FFF089487
:10BAB00020F07F450694504823690493A5FB0001BC
:10BAC000072303FB05114D4B07934D4B0593301A8C
:10BAD0004FF6FE736BEB010103934FF47A72002370
:10BAE000FEF784FF4346CDE90150009752460121FD
:10BAF00000200BF027FD30F002030CD0364A3D4900
:10BB000037484FF44B631BF020FA404080F3118814
:10BB10004FF0030002DFB9F1000F40F03781002041
:10BB20000BB0BDE8F08F1B1A2A4940F2E24003FB3C
:10BB300000F0A0FB010124A3D3E90023FEF756FF88
:10BB400020F07F40804431E790F8D920002A3FF46C
:10BB5000C6AE80F8D930C6E6E168626823F00043DB
:10BB600091422CBF88449044A360A8EB0308FCE6F4
:10BB7000B4F82CC094457FF4E4AE40F2E24C0CFBE8
:10BB800003FE42F2107C0CFB01EC0CF1FF3CBCFB11
:10BB9000FEFCB4F8C2E01FFA8CFCE6457FF4D1AE9F
:10BBA00001232B71D8E60C4A16490D4840F6EB33B9
:10BBB0001BF0CBF9404080F311884FF0030002DF07
:10BBC0002868B0E6AFF300808D49FD1A0700000039
:10BBD0004020002000CA9A3B68D40D0068CF0D00B9
:10BBE000D0CE0D00FF5962027FC3C901A811002009
:10BBF0002DB20C0048D50D008D49FD1AD5B10C00B1
:10BC00007DF90C0034D50D0001200DF0CBFE074668
:10BC1000002800F0CF8074480AF078FA0546002822
:10BC200000F0C880714B1A68002A00F0BB800DF04C
:10BC3000D7FE2B793A68D4F80811516043F003031A
:10BC4000C4F8087100212B710C236B71E97194F811
:10BC50001C312B72A38DD4F818211E44644BA3FB16
:10BC60000232B4F81031A5F80B30920AB4F8123150
:10BC7000A5F80920A5F80D3094F80E21B4F8143178
:10BC8000A5F80F300636D4F8C431B6B261F302021B
:10BC9000A4F8E86084F80E21A5F81160BBB194F80F
:10BCA0006621900713D494F8BF21D1070FD4D4F89C
:10BCB000D0219342D4F8C8217FD062B91A7902F01A
:10BCC0000302032A00F08580C4F8C83105E0D4F8E7
:10BCD000C821002A68D0D4F8CC311A682A601D60C7
:10BCE0002B68C4F8CC510BB9C4F8D4516FF076006E
:10BCF0000BB0BDE8F08F226CA36C02FB1B33A36476
:10BD000015F038FD054694F8D800C0F3C20015F0D0
:10BD100033FD054406FB05F5364B94F81C2105F56B
:10BD2000742505F23F25A3FB0535AD0C07FB02F298
:10BD3000A36C226505FB0AF072080344963A93420D
:10BD400028BF13462564A6EB050B2B4DC4E9112330
:10BD50000023C4F8E030A0FB050121A3D3E90023B0
:10BD6000FEF744FE2249A8EB0008D4F81801A1FB15
:10BD70000030800A07FB00F019A3D3E90023A0FBE1
:10BD80000501FEF733FE20F07F472EE60122022157
:10BD900010460AF061FAC2E6002384F88521A4F86F
:10BDA000C830B1E51C6042E72B60C4E97155C4F8A6
:10BDB000CC5198E76FF06800B2E61968C4F8D0116A
:10BDC000002A88D11A682A601D602B68C4E9725560
:10BDD00089E7DA79032AF5D00A2A7FF475AFF1E70B
:10BDE0008D49FD1A07000000D420002040200020CB
:10BDF0005917B7D183DE1B4300CA9A3B00000000ED
:10BE00002DE9F04F0B68D2F800A01B6897B00C46E4
:10BE10000A93037F00F11E01C3F380130546174602
:10BE200014A806228DF847301DF0C6F894F811903A
:10BE3000B9F1FF0F12AE5CD032460DF14701484612
:10BE400014F0AEF89DF8473002338DF8473029469C
:10BE5000032251F82E3B0B9307F1080007F1040B66
:10BE60001DF0AAF807F11808042205F12A01584626
:10BE70001DF0A2F8052205F13A0140461DF09CF89C
:10BE8000404605210AF012FB7B7F95F83F1000F039
:10BE90003F0060F305037B77C1F30403BB77B5F87C
:10BEA0003480A7F80E8001281FFA88F201F01F03E2
:10BEB00005D91B3303F01F030B2B00D8FAB90A9BDB
:10BEC000EC680B9800225A6197F82030012662F343
:10BED000000387F8203029462E710DF053FD2068AD
:10BEE000267121460DF04EFD0DF056FD17B0BDE850
:10BEF000F08F062214A930461DF05EF8A7E72368EC
:10BF00000020586095F8363095F8370043EA002352
:10BF10003B829AF8D830490961F3C503698E8AF8E3
:10BF2000D83040F2E24303FB02F80D9115F022FCF9
:10BF30000C909AF8D800C0F3C20015F01DFC0C9AC2
:10BF4000B749024408FB02F202F5742202F23F22D2
:10BF5000A1FB0232920C7A6295F83120398A40F2C4
:10BF6000E24302FB03F3BB634FEA5803963BBB6219
:10BF70002B8FAC4AADF83A3018464244AA4BB2FB7C
:10BF8000F8F2AAF8C62082B242F2107000FB0282D8
:10BF90004344013A881DB2FBF8F2B3FBF8F3AAF868
:10BFA000C2209AB28242AAF8CE2002DD521A063A84
:10BFB00092B25946AAF8CA200AF1DC0004221CF009
:10BFC000FBFF4FF480722B7FAA830A9A92F8260017
:10BFD000C3F340120F920C9214F050FD014606225A
:10BFE00005F12B00002900F0E78005F124011CF089
:10BFF000E3FFB9F1FF0F05F1250000F0E08014A97F
:10C0000006221CF0D9FF9DF84730AB773146062257
:10C0100005F11F001CF0D0FF9AF8D830FA896A8623
:10C020003A8AAA86C3F3C203BDF83A2085F83830AD
:10C03000EA8650460FF0CEFC2946B881E880656854
:10C040000B980DF09FFCBB89EB801C232B710C9B84
:10C050002E68002B40F0C0809DF83C302B7729469D
:10C0600030460DF08FFC0DF097FC97F84500B7F8BF
:10C070004050B7F84260012100F0070015F08AF93E
:10C080002E4406F5E17631188146684800263123B2
:10C09000CAF80830A1FB00015FA3D3E90023CAF866
:10C0A0000460CAF80C60FEF7A1FC7B6A0D9AE56893
:10C0B00020F07F40A8EB030840F2E24303FB025567
:10C0C00002213246CAF8100001200AF0C5F80A9F82
:10C0D00038460EF041FD821C554B0097D2B23046D7
:10C0E00001210BF0B9FA05F2B2450128A5EB0905CB
:10C0F0007DD00A9B93F82430DB0765D450460FF0BF
:10C1000069FCDFF82891A8FB098643A3D3E9002343
:10C11000834631464046FEF769FCA368CDF818A077
:10C120000BF10304A3F13A0B424B0793424B0593E7
:10C1300040F2BF130893DAF81030049320F07F47E1
:10C140003E480023A7FB000103930723B8EB000040
:10C1500003FB071166EB01014FF47A720023FEF72F
:10C1600045FC2DA3D3E90023CDE90170A5FB09010E
:10C17000FEF73CFCE4B220F07F4000905B46224694
:10C18000012100200BF0DEF930F002030CD02C4A24
:10C190002C492D484FF4E0731AF0D7FE404080F34D
:10C1A00011884FF0030002DF0122022110460AF03D
:10C1B00053F817B0BDE8F08F1CF009FF19E706220D
:10C1C00000211CF004FF1EE7002301220093184603
:10C1D00011460BF041FA91E77B7F43F040037B77F8
:10C1E000584613F0E9FC0123F8832B7737E70DF06D
:10C1F000A5FC0A9B83423FF47CAF114A13491248C5
:10C2000040F296231AF0A1FE404080F311884FF0CF
:10C21000030002DF6DE700BF8D49FD1A0700000033
:10C2200083DE1B43FF5962027FC3C90100CA9A3BE8
:10C2300041F90C0011F90C007DF90C008D49FD1A33
:10C2400070D60D0048D50D00D0CE0D00CCD60D0017
:10C250002DE9F04F8FB0DFF8D8800A900DF137014B
:10C260000DF136000DF006FC324F9DF836A09DF81A
:10C2700037B00BF033FAD8F80040A4FB07542AA3D8
:10C28000D3E90023814621462846FEF7AFFB0A9BEF
:10C290000B90D8F804000693274B0593002622A3A1
:10C2A000D3E90023A0FB0701CDE90766FEF79EFB5B
:10C2B0000B9B20F07F40CDE90360204823F07F47AF
:10C2C000A7FB00010723281A03FB071164EB0101F8
:10C2D0004FF47A720023FEF789FB0096CDE90170D6
:10C2E0004B465A46032150460BF02CF930F002041D
:10C2F00016D1134A1348002319F0F8FD68B19DF8D0
:10C3000037209DF836000094234603210BF0A4F952
:10C310006FF073000FB0BDE8F08FD8F80C00F9E7AC
:10C320006FF08B00F6E700BF8D49FD1A0700000093
:10C33000B828002000CA9A3B39490D008D49FD1AE2
:10C34000447B0B00C828002038B50F4D04460BF085
:10C35000C5F9A9680BF0C4F96968B0FBF4F40444AA
:10C360000A4807A3D3E90023A1FB0001FEF73EFB27
:10C3700020F07F40844294BF0020012038BD00BFE0
:10C380008D49FD1A07000000B828002000CA9A3B1A
:10C390008B1E59425941014B197070475E2A00208B
:10C3A00008B503481AF0D1FD024B00221A7008BDEF
:10C3B00028DF0D005D2A00200349044B0448002AB1
:10C3C00008BF19461AF0C1BD3DDF0D0042DF0D0068
:10C3D0004ADF0D0010B5094C206848B11FF01FF965
:10C3E00030B1216806480A68BDE810401AF0ADBDBA
:10C3F00004481AF0AAFD0023236010BD9C01002010
:10C4000059DF0D0078DF0D0001481AF09EBD00BF16
:10C4100006E00D0011B103481AF097BD02481AF06A
:10C4200094BD00BF24E00D0044E00D00034B012249
:10C430001A70034B18681FF085BC00BF5F2A0020EC
:10C440008C15002030B593B01DF0D7FA0378044660
:10C4500007AD032B24D8DFE803F0021D1F21134989
:10C4600028461CF060FDA379059562780492A278B5
:10C470000392E278029222790192627900921E215F
:10C480000B4A0AA81AF06EFD0A480AA91AF05DFDC7
:10C4900013B030BD0849E3E70849E1E70849DFE7A1
:10C4A000084A0A2128461AF05DFDDCE74FE00D003E
:10C4B00071E00D0094E00D0056E00D005DE00D0010
:10C4C00067E00D001BFD0D00F0B589B01AF0E6F92C
:10C4D000504B514F186000233B70504C20461FF0CA
:10C4E0009EF898B12669A568336843F40063336009
:10C4F0000B212B6840F21112204698470146A8B143
:10C50000226847480B231AF020FD03E021684548C4
:10C510001AF01BFD002004F011FB064668B301462B
:10C52000414809B0BDE8F0401AF00FBD3368AE696C
:10C5300013F4006F4FF00B010CBF4FF480234FF446
:10C5400000334FF4A0322046B0472668014618B1A8
:10C5500036480B233246D6E73549364B4B604FF40D
:10C5600000638B60EB6913B1012220469847324883
:10C570000B2231461AF0E9FCCCE7304D30481AF076
:10C58000E4FCFFF727FF0FCD03AC0FC42B6823603B
:10C590002C4900963346022203A805F053F90146C0
:10C5A000C0B129481AF0D1FC284806F051F94FF4DF
:10C5B000004000211AF058F93B787BB9FEF784FB64
:10C5C00001F008FE013810F0FF0008BF642001F000
:10C5D00007FEECE71E481AF0B8FCE5E703A90120C6
:10C5E00001F026FE014628B11A481AF0AEFC0120DF
:10C5F00000F0CCFF184B02930398042302AA1BF00F
:10C6000039FB014608B11548EFE715481AF09DFCC3
:10C61000EDE700BF8C1500205F2A002050C20D00FE
:10C62000D1E00D00ABE00D004CE10D00FAE00D0093
:10C63000801500202DC40B0030E10D00B0C60D00A8
:10C640006CE10D00D8C70D0083E10D00A0010020B2
:10C65000A9E10D00CBE10D0056341200EBE10D0015
:10C660000DE20D000B6801330B60014B1B6818478E
:10C67000C4010020014B1860704700BFC4010020B6
:10C6800007B50B46002102460191034801A900F0BD
:10C69000F9F803B05DF804FB65C60B0030B585B052
:10C6A000CDE901010446002501A90548039500F0E4
:10C6B000E9F8DDE902309842B8BF255405B030BD35
:10C6C000256F0D002DE9F84FB0F8189019F0080803
:10C6D000044693460DD001290CBF49F0100949F0DA
:10C6E0002009A0F818908BF31188BFF36F8FBDE875
:10C6F000F88F09F00709022907D120461AF03FFCFC
:10C700000028F0D00128238B4ED16769218B002FA0
:10C7100015DA256821F00701C4E9008841F001011C
:10C7200021830026218B01F0070ACA4502D0A368A5
:10C73000002B5AD10DB9002E71D0002356E001F024
:10C7400007035A1F012A1ED821F00701062B25686E
:10C7500089B2C4E900880AD13DB1638B2A461268C8
:10C7600001339BB2002AFAD1638341F00201218395
:10C7700020461AF004FC06460028D3D0238B43F051
:10C7800020032383CDE7042B0CD121F0070189B2CC
:10C79000218320461AF0F3FB05460028C1D041F062
:10C7A000200121830025BCE7032809D1226923F059
:10C7B0000703166843F00603238300252F46B1E7DD
:10C7C000042806D1226923F00703566843F00403C6
:10C7D000F2E7052806D1226923F00703966843F0A3
:10C7E0000503E9E700252E46E8E7012341F00801AB
:10C7F00021838BF31188BFF36F8FFBB985BB16B113
:10C800001F492046B0474FF02003EFF3118B83F30D
:10C810001288BFF36F8F238B23F008032383238BAE
:10C82000DA0625D523F0100323830121B4F81890EC
:10C8300009F0070900297FF45EAF54E7A1680029D9
:10C84000DCD0D1F80090D1F804B03B4652462046E7
:10C85000D847B9F1000FD1D04946D9F80090F2E796
:10C8600029463B46524620462D681AF0A4FBC5E7F0
:10C8700013F020011EBF23F0200323830221D5E7FC
:10C88000E36F0D002DE9F04F81469BB08A461546B7
:10C890001C460026287810B9304600F0EEBD6B1C0F
:10C8A0002528029306D05146C8470028C0F2E585E6
:10C8B00001364CE2182200210CA81CF088FB6B7892
:10C8C000252B7CD00022681C96469046944617463D
:10C8D000014610F8013B2B2B00F0A08000F297805E
:10C8E000202B00F09E80232B00F09E802FB19DF81E
:10C8F000380040F004008DF83800BCF1000F05D07E
:10C900009DF8380040F008008DF83800B8F1000FAD
:10C9100005D09DF8380040F010008DF83800BEF1C9
:10C92000000F05D09DF8380040F020008DF8380049
:10C930002AB19DF8382042F040028DF838209DF849
:10C94000382002F04400442803D16FF386128DF89A
:10C9500038209DF838202A2B42F080028DF83820AC
:10C960007ED19DF8392042F001024B1C8DF8392010
:10C970001A782E2A9DF839200CBF0121002161F37D
:10C9800041028DF8392077D15A782A2A6DD00133A7
:10C9900000214FF00A0C184610F8012BA2F13007C5
:10C9A000092F40F2AB809DF838201091C2F340006F
:10C9B00040EAD17161F341028DF838205CE0AA1C95
:10C9C00002928DF83B309DF83930DF0740F17381DA
:10C9D00054F804BBBBF1000F07DA9DF8382042F091
:10C9E00004028DF83820CBF1000B580740F16C8120
:10C9F00054F8048BB8F1000F80F26B819DF8393048
:10CA00006FF341038DF839304FF0FF3861E12D2B82
:10CA10000DD0302B7FF46AAF012259E74FF0010CA3
:10CA200056E74FF0010853E74FF0010E50E701279A
:10CA30004EE70CFB0272303A0346184610F8017BB1
:10CA4000A7F1300EBEF1090FF3D9994290D09DF8AD
:10CA500038100F92D20F62F341018DF8381087E73A
:10CA60000B4600224FF00A0CE7E79DF8392042F010
:10CA700004028DF839200233194611F8012B6C2A73
:10CA80005CD040D8682A46D06A2A61D04C2A67D048
:10CA900019460B4613F8012B0293782A8DF83B2098
:10CAA00000F2DF80572A68D8412A04D0A2F145035A
:10CAB000022B00F2D6809DF83A3002F0DF0204210A
:10CAC000A2F1410861F30203D8F100029DF8391088
:10CAD0008DF83A3042EB080262F3C7110A068DF86E
:10CAE0003910CBB200F1E58003F07802182A40F04B
:10CAF000B5806FF3C6038DF839309CE00CFB012143
:10CB00003039034647E7742A26D07A2AC0D19DF8E7
:10CB1000393006220DE05A78682A9DF8392006D16E
:10CB2000012161F3C6028DF83920991CB1E7134643
:10CB3000022262F3C6038DF83930AAE75A786C2ACC
:10CB40009DF8392001D10421EBE713460322F0E7D9
:10CB50009DF839300522ECE79DF839300722E8E7E7
:10CB6000BDF8383023F4F04323F0020343F480434C
:10CB700043F00203ADF838308BE7A2F15803202BC5
:10CB80006FD801A151F823F03BCC0B0063CC0B0014
:10CB900063CC0B0063CC0B0063CC0B0063CC0B00AD
:10CBA00063CC0B0063CC0B0063CC0B00B7CA0B004B
:10CBB00063CC0B003BCC0B000DCC0B00B7CA0B00B9
:10CBC000B7CA0B00B7CA0B0063CC0B000DCC0B002F
:10CBD00063CC0B0063CC0B0063CC0B0063CC0B006D
:10CBE00071CC0B003BCC0B0095CC0B0063CC0B0045
:10CBF00063CC0B0095CC0B0063CC0B003BCC0B0043
:10CC000063CC0B0063CC0B003BCC0B009DF83A309F
:10CC1000012161F302038DF83A309DF8393003F0B9
:10CC20007803402B02BF9DF8381041F001018DF8C8
:10CC30003810632A05D0002306E09DF83A3002211F
:10CC4000E7E7003B18BF01239DF83820C2F34001FD
:10CC50000B4363F341028DF83820B4E613F0380F2C
:10CC6000E9D09DF8383043F001038DF83830E2E721
:10CC70009DF83A30032262F302038DF83A309DF8B2
:10CC8000393003F07803A3F1400CDCF1000343EBEF
:10CC90000C03D9E79DF83A30032262F302038DF8C2
:10CCA0003A309DF8393013F0780F14BF0123002378
:10CCB000CAE70123C8E79DF93820002AB4BFDDF890
:10CCC0003CB04FF0FF3B90E699077FF59DAEDDF855
:10CCD00040809DF839100023CDE90F339DF83A309C
:10CCE00003F00702042A09D18A0707D49DF93920E5
:10CCF000002AB4BF4FF00D084FF0060803F00703F9
:10CD0000012BC1F3C30137D1CB1E042B21D8DFE89F
:10CD100003F003090920200054F8043BDA17CDE999
:10CD20000C3206E0073424F00704F4E80223CDE9CE
:10CD30000C239DF83870BB0756D0029B2A465146FB
:10CD400048461AF031FC0028C0F297830644029D41
:10CD5000A0E554F8043B01294FEAE372CDE90C3217
:10CD600005D19DF830300C9300230D93E1E70229A3
:10CD7000DFD1BDF93030D1E7022B23D1CB1E042BFC
:10CD800013D8DFE803F0030A0A12120022680C929B
:10CD90000023201D0D930446CBE7E01D20F0070083
:10CDA000F0E80223CDE90C23F5E754F8043B0C939B
:10CDB00001294FF000030D93D3D00229B9D1BDF85A
:10CDC0003030D0E7042B09D1E31D23F0070303F132
:10CDD0000804D3E90023CDE90C23AAE7032B04BF01
:10CDE00054F8043B0C93A4E79DF83B20782AAED876
:10CDF000572A00F28C80252A00F0D480242AA6D954
:10CE0000412A03D0A2F14503022BA0D8DDE90C137F
:10CE1000002BC0F2BE81380700F1BD8117F010076A
:10CE200018BF2027C3F30A55C3F31303CDE9081332
:10CE3000002D40F0B28151EA030014BF0120002010
:10CE4000DB0243EA5153C902462A45EA010E43EA8E
:10CE5000E57C08BF66225EEA0C0CCDE9081300F001
:10CE60000682002840F0CE81DDE908014FF0000C79
:10CE700041F00041A5F2FE35099163464FF0050EE1
:10CE800015F1020FC0F2C581BCF1000F01D0CDE950
:10CE90000801002DDDE9081000F3D08109980899F8
:10CEA000C5F1040C1C3500FA05F5ACF1200E21FA91
:10CEB0000CF120FA0EFE294341EA0E0120FA0CF093
:10CEC000CDE9081002F0DF01472940F0D781DD1CD1
:10CED00002DB984580F2CE81023AB8F1000FD2B25F
:10CEE00001DD08F1FF389DF83810880600F1C68191
:10CEF000B8F1000FD4BF00210121662A039140F050
:10CF0000BF8118EB030540F1BD810025BDE1A2F111
:10CF10005803202B3FF61BAF01A050F823F000BFB1
:10CF200035D10B004FCD0B004FCD0B004FCD0B007B
:10CF30004FCD0B004FCD0B004FCD0B004FCD0B0055
:10CF40004FCD0B000DCE0B004FCD0B00D1CF0B0002
:10CF5000D5D00B000DCE0B000DCE0B000DCE0B006F
:10CF60004FCD0B00D5D00B004FCD0B004FCD0B009C
:10CF70004FCD0B004FCD0B006BD10B0035D10B000B
:10CF800039D10B004FCD0B004FCD0B00ABCF0B00B9
:10CF90004FCD0B0035D10B004FCD0B004FCD0B000B
:10CFA00035D10B00514610467EE4B8F1000F0C9AC3
:10CFB00009DB4146104603921BF0D8FF039A002775
:10CFC000151862B9C3E6104603921BF0C8FFF5E7D7
:10CFD0000C9B8DF84C3000270DF14D0513AAAB1AB0
:10CFE00007B101339DF83A00C10640F13A8202339D
:10CFF0000F9940060B4444BF10995B18BBF1000F1A
:10D0000023DDABEB030B9DF838305907C3F38008E1
:10D010001BD4580640F13482002F00F03482514670
:10D0200038460392C8470028C0F22782039A474631
:10D0300001364FF030085E445B46002BA6EB0B0038
:10D040000BF1FF3B00F31182064647B151463846CB
:10D050000392C8470028C0F21082039A01369DF857
:10D060003A30590640F165829DF93930002BA6EB24
:10D0700002030393C0F20A8217463878039BA0F19B
:10D080003002092AB84603EB070607F1010740F210
:10D0900029829DF83A200F9F930608D43E44002F22
:10D0A000A6EB070307F1FF3700F322821E4698F82C
:10D0B00000002E280BD15146C8470028C0F2DD8160
:10D0C000002F06F1010600F31A8208F10108A6EB11
:10D0D00008061DE23D072BD417F0100718BF2027C4
:10D0E000DDE90C23002B05DA524263EB4303CDE963
:10D0F0000C232D270DF1650300930EAADDE90C0129
:10D1000013AB1AF00BFA0246B8F1000F0DF16505EA
:10D11000FFF657AF9DF83810AB1A6FF3861198459C
:10D120008DF838107FF64DAFA8EB03030F9348E757
:10D130002B27D5E70027DDE70C98002800F08D812C
:10D140000DF1650300930EAA13AB00211AF0E6F966
:10D15000BDF83A3003F0EF0343F4F04343F010031B
:10D160000246ADF83A300027CEE70C9B07293FF680
:10D17000EEADDFE801F00C04060C08080C0C1E7084
:10D18000E5E51E80E3E5F217C3E90062DFE51E6016
:10D19000DDE52D2746E62B2744E640F2FF70854269
:10D1A0002DD10B43A2F141021BD1192A11D84923D9
:10D1B0008DF84C304E238DF84D3046238DF84E308F
:10D1C0009DF838306FF386138DF838300DF14F0528
:10D1D00004E769238DF84C306E238DF84D306623BB
:10D1E000ECE7192A99BF4E2341226E23612294BF96
:10D1F0008DF84C308DF84C308DF84D20DEE7002056
:10D200001EE6013D49185B41002BFADACDE908130F
:10D210002AE6400840EAC1704908B1F1333FAC4604
:10D2200005F10105F5D20EFB01F5A0FB0E01294425
:10D23000013B0CF102054FF0010C21E6023140F1F7
:10D240000000CDE9081008A8CDE903231AF037F94A
:10D25000049B039ADDE90810013D01334918404160
:10D26000002805F1FF35F9DACDE9081011E60023B1
:10D270001D4613E6A8EB0308662234E600213CE6CF
:10D2800008F10105102DA8BF1025102107910020DD
:10D290004FF00061CDE90A01DDE90A10A5B9089D4A
:10D2A0004919099D40EB0505B5F1805F1BD2CDE919
:10D2B0000815662A40F09980002B23DC30218DF878
:10D2C0004C100DF14D052FE0490841EAC0714008AE
:10D2D000CDE90A100AA8CDE90423013D1AF0EFF8C0
:10D2E000DDE90423D8E7490841EAC57108A86D08BB
:10D2F000CDE90423CDE908151AF0E1F8059B049A5D
:10D300000133D6E713AD079900290BDD07A908A85B
:10D31000CDE904231AF0EBF8059B05F8010B013B5E
:10D32000049AF0D10F9300239DF83810890602D497
:10D33000B8F1000F1DDD2E2105F8011B9BB1B8F1DE
:10D34000000F16DD59424145A8BF41469DF83A00FD
:10D350000F910029A8EB0108D4BF0021012161F33E
:10D3600045108DF83A00B8F1000F02DD0799002949
:10D3700056DC0399002963D1CDF8408002F0DF012B
:10D38000452921D1002B2946B8BF5B4201F8022B69
:10D39000B4BF2D222B22632B6A7009DD642093FB1E
:10D3A000F0F202F1300CE91C85F802C000FB1233E8
:10D3B0000A200D4693FBF0F200FB123302F1300C11
:10D3C000303305F802CB4B700F9B002B43DC109BD6
:10D3D000002BD4BF002301239DF83A2063F386126B
:10D3E00000238DF83A202B70F8E507A908A8CDE9AD
:10D3F00004231AF07CF8DDE904239DF838108DF839
:10D400004C00302818BF03F1FF33880602D4B8F16E
:10D41000000F12DD2E218DF84D100DF14E05A2E703
:10D4200007A908A8CDE904231AF061F808F1FF382C
:10D43000DDE9042305F8010B95E70DF14D0598E7AB
:10D4400000211091284615F8011D3029FAD02E2907
:10D4500018BF054692E70123BEE74B4D07466A1FFA
:10D46000BDE5010748BF0133C2E55146404603927E
:10D47000C8470028039ABFF6DFAD1BB0BDE8F08FA8
:10D480004FF02008D7E54FF03008D4E59046039BD5
:10D490004746434418F8010B70281ED11E46109BC6
:10D4A00003EB0608A8EB0603002B3BDC2B463A46B1
:10D4B000514648461AF078F80028DEDB304406462C
:10D4C0008344ABEB0603002B7FF741AC5146202091
:10D4D000C8470028D1DB0136F3E75146C84700288A
:10D4E000D5DACAE75146C8470028BFF6C6ADC4E73B
:10D4F00051463020C8470028BFF6D1ADBDE75146A0
:10D500003020C847013FD8E55146C8470028B4DB62
:10D51000474606EB080318F8010BA0F13002092A70
:10D52000F2D9BBE751463020C8470028A5DB0136B9
:10D53000B8E7D80601D4190707D551463020039221
:10D54000C847002899DB039A01369DF83A30DB067C
:10D5500008D59DF83B0003925146C84700288CDB54
:10D56000039A01360F9F3744BB1B002B01DC2B466F
:10D570009EE7514630200392C8470028FFF67DAF52
:10D58000039A0136F0E700BF1EE20D0008B54FF028
:10D590002002EFF3118382F31288BFF36F8F01F043
:10D5A000EFFD034819F0D1FC01F09CF8FCE700BF47
:10D5B0001FE20D0030B51049104889B000221EF05E
:10D5C0006EFC0F4D0F4900220023CDE906230024F5
:10D5D0000E23CDE90334CDE901440B4B00944FF405
:10D5E0004072284618F0D0FA084928461EF0DAF8AA
:10D5F000204609B030BD00BF11D60B00780A0020CC
:10D60000B00A0020E02F00206DD90B0048E20D0089
:10D61000014818F045BC00BFF80800200C4A002360
:10D6200010B513700B4A13600B4B0C4A1A604FF481
:10D63000004000F0C7FC00F079FA094819F0CBFF70
:10D64000BDE8104007490848082348221EF060B88A
:10D65000612A002094150020C801002015760D00D5
:10D660009C15002048530020A415002070B5124BD3
:10D67000BFF35B8F53E8005F6A1C43E80021002979
:10D68000F8D1BFF35B8F2DB90C4C0D4E361B361104
:10D69000B54200DB70BD237B53B123689B690BB19E
:10D6A00020469847636804221968204600F030FA43
:10D6B00001351034ECE700BF9815002058C60D0066
:10D6C00078C60D0010B54FF02003EFF3118483F3FB
:10D6D0001288BFF36F8F044819F08DFF84F311880F
:10D6E000BFF36F8F10BD00BF9C15002010B5044C18
:10D6F000237813B9034818F0D3FB0123237010BD1E
:10D70000602A0020F80800200C4BBFF35B8F53E821
:10D71000002F013243E800210029F8D1BFF35B8FCD
:10D72000BFF35B8F064B53E8002F013A43E800211B
:10D730000029F8D1BFF35B8F704700BF941500201C
:10D74000901500200020064BBFF35B8F024653E884
:10D75000000F43E800210029F9D1BFF35B8F704728
:10D7600094150020F8B5FFF7EDFF0A4C0A4D2D1B6C
:10D7700007462D110026AE4200DBF8BD63685B79D9
:10D780002BB123681B6913B13946204698470136EF
:10D790001034F0E758C60D0078C60D00164B9842BD
:10D7A00037B5044602D3154B984220D314480022C3
:10D7B000002301A918F088F90546D8B90122019B78
:10D7C000BFF35B8F53E8001F43E800200028F9D126
:10D7D000BFF35B8F01982146412204301BF0ADFB63
:10D7E000019C7E2384F8453084F84650043420465A
:10D7F00003B030BD034CFAE7A8C10D009C000E0039
:10D80000A415002050E20D0050B1064B984206D3FB
:10D8100003F5107398422CBF0020012070470020B0
:10D82000704700BF48530020434B1B782DE9F74F4A
:10D83000044603B900B3FFF745FF054678B1BFF3CF
:10D840005B8F3E4B53E8002F013A43E8002100294B
:10D85000F8D1BFF35B8F9CB1284619F0E5FF2CB9D6
:10D86000374B1B68002B01DDFFF77CFF354819F0B3
:10D87000C0FE041E18BF0124204603B0BDE8F08F8F
:10D88000314B1B78BBB92B7ADB0714D419F0DFFFBF
:10D890008046284619F0A6FF0146404619F0BEFE14
:10D8A0002A4B2B4ADFF8ACA0DFF8ACB09B1A064637
:10D8B0004FEAD30936B9294E294FBF1B3F114FF00C
:10D8C000000836E0B6FA86F7C7F11F073946284642
:10D8D00019F08BFF234B9842024602D3224B984209
:10D8E00016D31046FFF790FF90B9524510D06989C2
:10D8F000C1F3891100F0FEF84FEA891343F00103E8
:10D900000246ADF8003039464346584619F0E0FE6D
:10D91000012303FA07F726EA0706CBE773685B796A
:10D9200023B1336829465B683046984708F10108FF
:10D930001036B845F2DB8FE7602A002090150020F2
:10D94000941500209C150020612A002010C60D00AF
:10D95000E0C40D0050E20D006AE20D0058C60D0053
:10D9600078C60D00A8C10D009C000E0010B5FFF791
:10D970007DFE18F093FF0C4B186030B10B4B1B6809
:10D98000092B02DD0A4818F08BFA094C0020FFF73A
:10D990004BFF0028FAD14FF0FF324FF0FF33204603
:10D9A00018F0A4FAF2E700BFC0150020901500207F
:10D9B000F8080020294B37B51B6841810446984779
:10D9C000E0604FF02003EFF3118583F31288BFF37B
:10D9D0006F8F2348214619F002FE85F31188BFF3AB
:10D9E0006F8FBFF35B8F1F4B53E8002F013243E86B
:10D9F00000210029F8D1BFF35B8F1B4A127882B156
:10DA00004FF02003EFF3118483F31288BFF36F8F7D
:10DA10000020FFF709FF84F31188BFF36F8F03B075
:10DA200030BD124A1B681268002AF8D0012B0AD1B7
:10DA300000220023CDE900230D484FF400420023CB
:10DA400019F040F9EBE70A2BE9D109481EF033FA47
:10DA5000084803B0BDE8304018F022BAC8010020E1
:10DA60009C15002090150020612A0020C015002080
:10DA7000780A0020F8080020F8B50E4F3D7875B9F7
:10DA80000D4C0E4EFFF7F2FD361B3611B54207DB8B
:10DA90000020FFF7C9FE0028FAD101233B70F8BD32
:10DAA00063685B791BB1236820465B699847013541
:10DAB0001034EBE7612A002058C60D0078C60D002F
:10DAC00007B504380190BFF35B8F50E8003F5A1E42
:10DAD00040E800210029F8D1BFF35B8F012B03D16F
:10DAE000034801A91DF02FFE03B05DF804FB00BF41
:10DAF000A4150020044A054B9B1AB1EBD30F34BF89
:10DB000052F8310000207047E0C40D0058C60D00E7
:10DB1000054A4368801A001101300122187119600A
:10DB20005A71FFF7E3BD00BF58C60D00202302491C
:10DB300002481A461DF0ECBD88550020C41500208F
:10DB400037B50023094D01930120FFF76DFE044610
:10DB5000FFF7DAFD0022002301A9284617F0B4FFE1
:10DB600008B1002CF0D1019803B030BDC4150020DD
:10DB700007B50023019307480022002301A917F0ED
:10DB8000A3FF10B1FFF7DCFF0190019803B05DF82F
:10DB900004FB00BFC4150020F0B5037A85B0DC0794
:10DBA00001901ED4457A2D091BD0002426460198E9
:10DBB000314619F01AFE0746FFF726FE70B134B958
:10DBC000019B2946186919F029FD044648B124FA39
:10DBD00006F3D90702D53846FFF772FF0136AE4289
:10DBE000E5D3019B1A7A920704D55B69084C03932D
:10DBF000039B2BB9064801A91DF0A5FD05B0F0BD9A
:10DC00001D6803A920461DF09EFD0395F0E700BFA7
:10DC1000C41500200EB403B503AB014653F8042B22
:10DC200004480193FEF72EFE02B05DF804EB03B04A
:10DC3000704700BF077C0D002DE9F0471D46089B8B
:10DC40001746DA0604460E4605D499064CBF2A4903
:10DC50002A49FFF7DFFFDFF8A8904FF00008A8453A
:10DC60002ADBDFF8A080DFF8A090DFF894A0002581
:10DC7000BD422FD2725D49462046FFF7CBFF0135EA
:10DC8000102D20D12149DFF87880DFF884902046DC
:10DC9000FFF7C0FF0025AF4228D9725DA2F1200333
:10DCA0005F2B28BF2E2249462046FFF7B3FF0135E0
:10DCB000102D14D1BDE8F08749462046FFF7AAFF92
:10DCC00008F10108CBE76A07D2D151462046FFF799
:10DCD000A1FFCDE741462046FFF79CFFCFE76B074A
:10DCE000D9D141462046FFF795FFD4E7414620466B
:10DCF000FFF790FFDBE700BFAFE20D00AEE20D00E3
:10DD0000B9E20D00B7E20D00B1E20D00BBE20D007B
:10DD1000BDE20D002DE9F04F87B011F0020605922B
:10DD20009DF84080BDF9489007461A4601F0010A67
:10DD300001F0080506D011F0440F38D13349FFF740
:10DD400069FF0646BAF1000F0AD0314B314953F84A
:10DD50002820314B3846002A08BF1A46FFF75AFFE1
:10DD60003DB12E4B2E4953F828203846FFF752FF7D
:10DD70000546B9F1000F16DB059B002B43D00123AC
:10DD800003FA08F8274B284C18F0100F18BF1C4650
:10DD900049469DF84400FFF7ADFE2146024638464D
:10DDA000FFF738FF0544A81907B0BDE8F08F1F4BF7
:10DDB000196831B31E4B4FF461661B68B2FBF3F375
:10DDC0004FF47A7BB3FBF1F4B4FBF6F206FB124698
:10DDD00001FB14340BFB04F44FF03C0CB4FBF1FEDC
:10DDE000B6FBFCF301FB1E440CFB13660BFB04F4B7
:10DDF0000096B4FBF1F1CDE901E10E49FFF70AFF0E
:10DE00009FE708469DE7084CC2E700BFCEE20D0041
:10DE1000E8C70D003DEF0D00C0E20D00FCC70D008E
:10DE2000F3E20D00CAE20D00C5E20D00E01500208E
:10DE3000E4150020D7E20D0038B50C46E107054691
:10DE400003D5084A0849FFF7E5FEE20608D4A30611
:10DE500028464CBF05490649BDE83840FFF7DABE01
:10DE600038BD00BFC0E20D003DEF0D00AFE20D0078
:10DE7000AEE20D002DE9F0478B7A13F007088AB067
:10DE800005460E46174622D00A7A4989C3F3C203D3
:10DE9000C1F38911D243CDE900830291F36802F006
:10DEA00001023946FFF736FF8146347AE44314F025
:10DEB00001040ED02946304619F03BFDB8F1000FA1
:10DEC0002BD0424639462846FFF7B6FF25E0C1462B
:10DED000EBE7B8F1000F26D12746EB68069306AAB8
:10DEE0003B46A968304619F010FD069A6B681A6027
:10DEF0003AB1AB68134413F8014CA4F10A035C4235
:10DF00005C41284619F072FE069B1F44002BE4D1A9
:10DF10001CB114492846FFF77DFE28460AB0BDE82B
:10DF2000F04719F063BE304619F091FC0E490246E5
:10DF30002846FFF76FFE4FF0100A05AA234606A9F0
:10DF40003046CDF814A019F0E0FC059A002AB8D0AC
:10DF50004B46009706A92846FFF76EFE059B1C441A
:10DF6000EBE700BFF9E20D003DEF0D0073B542F2A3
:10DF70000F738B4228BF0B4605680F4A04460521E4
:10DF8000684618F0EFFF63680C495B6806460B2291
:10DF9000284619F0C1FC63683246694628465B682A
:10DFA00019F0BAFC636806495B681B22284619F021
:10DFB000B3FC02B070BD00BF42EB0D0037E30D00B3
:10DFC0001BE30D00084A10B50123084C1360002123
:10DFD000A04204D801B11360054B186010BD400881
:10DFE0005B000121F4E700BFE415002040420F0070
:10DFF000E0150020F8B5074F0D4604464618B44218
:10E0000001D12846F8BD386814F8011B83685B68A5
:10E010009847F4E7FC150020014B024A1A6070474C
:10E02000FC150020B0C20D00024B034801221A70FB
:10E0300019F0DCBD622A00202CC80D000148FFF752
:10E0400095BF00BF2CC80D0010B508460C4619F04E
:10E05000BCFB054821460F22FFF70CFF2046BDE818
:10E06000104019F0E1BB00BF2CC80D00014B01228C
:10E070001A707047742A0020024B034801221A705C
:10E0800019F0B4BD752A002058C80D000148FFF7EB
:10E090006DBF00BF58C80D0010B508460C4619F0FA
:10E0A00094FB054821460F22FFF7E4FE2046BDE819
:10E0B000104019F0B9BB00BF58C80D00054B1B78C4
:10E0C0001BB141F288301DF0BBBEA420002118F026
:10E0D000CBBB00BF752A00202DE9F047DFF88C90FC
:10E0E000DFF88CA080460F46042499F80050CDB983
:10E0F0004FF0FF334FF0FF32504617F0E3FD3A4642
:10E100004146284617F0D2FA0646504617F052FE0E
:10E11000184DFEB101232B7099F800306BB93846C9
:10E12000BDE8F0873A464146002017F0BFFA0646A0
:10E13000EEE75CB92C704FF0FF34002017F002FBC3
:10E140000028ECD02B78002BF3D1E8E7013CFFF757
:10E15000B5FFF2E72B7813B1013C04D12C702B787A
:10E16000002BC2D1DBE7FFF7A9FFF8E7752A0020F3
:10E17000CC080020742A0020074B084A0848D21A0D
:10E18000D208084B9201012914BF0146194642F0FA
:10E190000302054819F06FBAE0C40D00E0C40D0099
:10E1A00097E30D008FE30D00A0E30D0010B5084CC0
:10E1B00086B024788DF81740012402940DF11704DD
:10E1C0000194BDF8204000941CF0A9FA06B010BDDF
:10E1D00053080020014B1878704700BF53080020F7
:10E1E00000B589B064288DF8070019D80E4B1822A5
:10E1F0001870002102A81AF0EAFE0C4B03930DF1EF
:10E200000703049302A901230020ADF8143006F09F
:10E2100089F810F1800F08BF002009B05DF804FBF9
:10E220006FF01500F9E700BF53080020E0C80D00AB
:10E230000C4B1B6870B573B10B4A15680022AA42DB
:10E2400002DB6FF0010070BD1C4613F8106B8642B4
:10E2500004D00132F3E76FF00C00F4E70C6000200B
:10E26000F1E700BF080200203CC90D002DE9F8438A
:10E2700005464FF02003EFF3118683F31288BFF3B6
:10E280006F8F0E4B1C689CB10D4FDFF838804FF03C
:10E290000C09D4E90132002D08BF13462BB198F8C0
:10E2A000142009FB02F2B85C98472468002CF0D1D6
:10E2B00086F31188BFF36F8FBDE8F8831416002032
:10E2C00020160020F429002000F01F0301229A40AC
:10E2D0000A4BBFF35B8F400903EB800050E8003F1F
:10E2E00043EA020140E8001CBCF1000FF6D1BFF385
:10E2F0005B8F1A4214BF0120002070472C160020AB
:10E3000030B51D4B1C7DBFF35B8F04F01F03012252
:10E310009A401A4B610985B0D04303EB810353E85F
:10E32000001F01EA000543E8005CBCF1000FF6D1D4
:10E33000BFF35B8F114217D0114D0C2202FB045228
:10E3400007CA01AB83E807000E4A7AB193E80700D9
:10E350001AF05EFE0020FFF789FF0C235C432A19A8
:10E3600000232B51C2E9013305B030BD82F311887F
:10E37000BFF36F8FEEE700BFF42900201C160020CA
:10E380002016002011900D002DE9F041374B384C3C
:10E390001D7D88B080462846FFF796FF60B96F461E
:10E3A00042462946384619F098FC97E807000C26A3
:10E3B00006FB054686E807000C236B43E218E05C89
:10E3C0006E0905F01F0700283BD0B8F1FF3F10D0C1
:10E3D000D2F808E02748284A4FF4004C00210023D7
:10E3E000EEFB0C01FCF702FB0121A8EB00001DF085
:10E3F00007FD17F0BBFF0120FFF738FFBFF35B8F6E
:10E400001E4B0122BA4003EB860353E8001F114361
:10E4100043E800100028F8D1BFF35B8F0C2303FB07
:10E42000054494E8070005AB83E80700144A1AB1D5
:10E4300093E807001AF0D9FDFFF762FF18F064F9BE
:10E440000120104ABFF35B8F0123BB40DB4302EB8B
:10E45000860656E8002F1A4046E800210029F8D128
:10E46000BFF35B8F08B0BDE8F08100BFF429002046
:10E47000201600203F420F0040420F001C160020D3
:10E48000EB8F0D002C160020014B1868704700BF61
:10E490000C020020F0B5082289B019F0DAFDCB6A31
:10E4A00003930B6B04934B6B05938B6B0693CB6BB6
:10E4B000079313466A460C46064600271146104647
:10E4C000CDE90177009719F0D1FC31460546304679
:10E4D00019F0CCFC216B0391616B0491A16B059148
:10E4E000E16B0544CDE906171046114619F0BEFC54
:10E4F00031460544304619F0B9FC0544206A0090C5
:10E50000606A0190A06A0290A06B0690E06B079091
:10E510003046CDE90477039719F0A8FC0544606AFA
:10E520000090A06AD4F838C00190E06A0290CDF85B
:10E5300010C0606BD4F83CC00390CDE905C0206AE0
:10E540000790304619F092FC0544E06A0090206B79
:10E550000190606B0290206A0690A06A0790304696
:10E56000CDE90477039719F0AAFD236B0093636B41
:10E570000193A36B0293E36B0393636A0693E36ACD
:10E5800007932D1A08233046CDE9047719F097FD3B
:10E59000636B0093A36B0193E36B0293236A039372
:10E5A000636A0493A36ACDE90537236B07932D1A99
:10E5B0000823304619F083FDA36B0093E36BCDE98C
:10E5C0000137636A0393A36A0493E36ACDE90537CD
:10E5D000636B07932D1A0823304619F070FD2D1A2E
:10E5E00010D40D4C35B908223146204619F03DFDB6
:10E5F00001280FD0082322463146304619F05FFD2E
:10E600002D1AEFE7044A08233146304619F02EFC54
:10E610002D18F8D409B0F0BD44C90D000449431EBB
:10E620000F3013F8012F8A5C1A708342F9D17047BA
:10E63000CFE30D00F0B5264E07460C460FCE8DB049
:10E6400001AD0FC50FCE0FC596E8070085E807009E
:10E650003846002F38D0002C38D0381F21460246CB
:10E6600010344B780D781B0443EA0563CD782B43B7
:10E670008D78043143EA05238C4242F8043FF0D1FF
:10E68000144C04218A07036916D1C3F30742A55C21
:10E690001A0EA25C42EA0562C3F30725DBB2655D90
:10E6A000E35C42EA054242EA03220CAD21F0030397
:10E6B0002B4453F82C3C534050F8042F0131534065
:10E6C0002C290361DED101200DB0F0BD2046FBE70F
:10E6D000C4C60D00CFE30D00014910220A60704747
:10E6E00010ED00E072B6404080F31188BFF36F8FE9
:10E6F000BFF34F8F30BF62B6BFF36F8F704700BF5D
:10E7000072B6494081F3118820BF80F3118862B648
:10E71000704700BF73B506460C4601B3134B144D4A
:10E720001448ED1AED08AD0145F00105ADF80050B3
:10E73000D1E90123096818F0CBFFADF80050D4E906
:10E740000423E1680C4818F0C3FFE1690B482A462E
:10E7500018F091FFA1690A482A4618F08CFF21465B
:10E76000304602B0BDE8704017F058B8E0C40D0064
:10E7700030C60D00CFE40D00FEE40D002DE50D00C8
:10E780003CE50D0043B2002B08DB012200F01F0026
:10E7900002FA00F05B09024A42F82300704700BF0A
:10E7A00000E100E043B2002B0DDB01225B0900F029
:10E7B0001F0002FA00F02033034A42F82300BFF39F
:10E7C0004F8FBFF36F8F704700E100E0054B4209A8
:10E7D00000F01F0053F82220012303FA00F010403C
:10E7E000704700BF00E100E043B2002BA8BF03F177
:10E7F000604301F10101B8BF064B4FEA4111ACBFC4
:10E8000003F5614300F00F00C9B2B4BF195483F897
:10E810000013704714ED00E008B572B6044B9A6916
:10E820001AB100229A611CF0C4FF62B608BD00BF95
:10E83000F429002030BFFFF7FDBF00BF0F4A08B525
:10E840000F4B22F07F029A60BFF34F8FBFF36F8FA1
:10E85000D3F8882022F47002C3F88820EFF31483E1
:10E8600023F0040383F31488BFF36F8F17F07AF853
:10E8700018F08EF800F016FB17F07EF800A00B00E1
:10E8800000ED00E0094A0A4993680968D967094917
:10E8900098674B6843F080534B60002383F31188E3
:10E8A000BFF36F8F9368D86F704700BFF4290020C3
:10E8B00010DF0D0000ED00E012498A684FF03000D3
:10E8C0001044EFF3098C80E8F01F202080F31288B9
:10E8D000BFF36F8F0C4F4FF00066CA698A603E60CD
:10E8E000906F0023936780F3118804B5104600F001
:10E8F0001BFBBDE8044002F1300090E8F01F8CF3F0
:10E9000009887047F429002004ED00E01EF0040F90
:10E910000CBFEFF30880EFF30980816911F8021C46
:10E920000229FFD001B51AF0EFFA01BD42F8203CF0
:10E93000009B42F81C3C0A49019B42F8183C029B90
:10E9400042F8143C21F001014FF0807342F8043C7E
:10E9500042F8081C0023203A02658367704700BF15
:10E960001F710D00094A0346906870B113F1160F2C
:10E97000806E05D0A0F120029A4205D8834203D2CE
:10E98000814228BF0020704700207047F4290020F2
:10E9900008B5094B98600D46144600F0C5FA2046AC
:10E9A00085F30988002163B681F31188BFF36F8F67
:10E9B0000022002318F0B3FBF429002001B572B641
:10E9C0000B4A906900281EBF002191611CF0F1FEE6
:10E9D00062B6EFF30580A0F110004FEAC0000549D0
:10E9E000014409C99847BDE80140034908470000B0
:10E9F000F4290020F8C20D00FDE90B00044B9968D2
:10EA0000D869884203D003494FF080520A607047AA
:10EA1000F429002004ED00E02DE9F047354B364C99
:10EA2000364DE41AE408A40144F00109074688467B
:10EA300033484946164618F011FEAB6ADB0603D58B
:10EA40003048494618F00AFEAB6A180704D52E482C
:10EA500044F0010118F002FE284DAB6A990723D457
:10EA60006FF01509254DAB6ADB0704D5274844F044
:10EA7000010118F0F3FDAB6A980604D5244844F070
:10EA8000010118F0EBFD1D4B9A6AD10624D49A6A55
:10EA9000920721D40020194A936A43F0FF0393623E
:10EAA00000233370BDE8F08744F0010A194851464D
:10EAB00018F0D4FDD5F83490AB6A1A06D0D51648B4
:10EAC0005246494618F0D7FDB8F1000FCAD0AB6ADC
:10EAD00023F08003AB62C5E75B681B05DAD53946D6
:10EAE0004846FFF73FFF0028D4D080F30988022072
:10EAF000D1E700BFE0C40D0030C60D0000ED00E01E
:10EB00006AE50D0080E50D00B3E50D00F4E50D00AC
:10EB100013E60D00C6E50D00DEE50D0070B5234BD4
:10EB2000234C244D2448E41AE408A40144F00106CF
:10EB3000314618F093FDAB6A9B0103D51F4831465F
:10EB400018F08CFDAB6ADD0104D51D4844F00101CD
:10EB500018F084FD174DAB6A180304D5194844F02A
:10EB6000010118F07BFDAB6A590304D5164844F047
:10EB7000010118F073FD0F4DAB6A9A0304D51348D9
:10EB800044F0010118F06AFDAB6ADB0304D51048BC
:10EB900044F0010118F062FD064A936A6FEA0343EC
:10EBA0006FEA13439362002070BD00BFE0C40D0004
:10EBB00030C60D0000ED00E042E60D005AE60D0003
:10EBC0006DE60D0087E60D00A5E60D00CAE60D0016
:10EBD000E4E60D002DE9F0412A4B2B4C2B4DE41AB5
:10EBE000E408A40144F0010807460E4628484146BF
:10EBF00018F034FDAB6AD90403D52648414618F015
:10EC00002DFDAB6A1A0504D5234844F0010118F024
:10EC100025FD1E4DAB6A9B0512D544F001081F4827
:10EC2000414618F01BFDA96BAB6A180408D51C48B7
:10EC3000424618F020FD1FB1AB6A23F40043AB62DB
:10EC4000124DAB6A590504D5164844F0010118F07D
:10EC500005FDAB6ADA050DD5134844F0010118F043
:10EC6000FDFC0A4A936A002043F47F4393623070AC
:10EC7000BDE8F081AB6A9B04F3D50C4844F0010178
:10EC8000EDE700BFE0C40D0030C60D0000ED00E070
:10EC90000FE70D0025E70D00B3E50D0036E70D0089
:10ECA0004FE70D0064E70D007FE70D0013E60D0050
:10ECB0002DE9F043654B5E688BB00D46C6F3080442
:10ECC000002787F31188BFF36F8F02F07F43B3F102
:10ECD0007F4F0DD102F00C03082B0BD15C495D4B2B
:10ECE0005D48C91AC908890141F0010118F0B6FC54
:10ECF0003D4603E0120701D40546012700238DF8A5
:10ED00000730E31E092B00F28880DFE803F0057569
:10ED1000797286868686867D4E4A4D4EDFF82C8136
:10ED20004E48B61AF608B60146F00106314618F00C
:10ED300095FCD8F82C404FF0000914F002048DF82F
:10ED4000079005D04648314618F088FC002407E0BB
:10ED5000D8F82C30002B1DDA4248314618F07EFCE2
:10ED60009DF807309BB92022294602A81AF024F901
:10ED7000099B002F65D0C3F3080222B96FEA532321
:10ED80006FEA4323099302A92046FFF7C3FC0BB0A7
:10ED9000BDE8F083D8F82C305B00E1D5324831462D
:10EDA00018F05CFCAB6933F8022C4DF602739A4202
:10EDB0000AD098F8283073B10DF1070201212846D6
:10EDC000FFF72AFE0446CBE729682848324618F0A8
:10EDD00052FC2C68C4E798F829302BB10DF10701DB
:10EDE0000120FFF7F7FEEDE7B8F82A309BB2002BC1
:10EDF000B6D0FFF793FEE5E70DF107020021DEE74D
:10EE00000DF107010020ECE71149124B1848C91A0F
:10EE1000C908890141F0010196E70E4A0C4B1548DB
:10EE200015499B1ADB0816F4F87F4FEA831318BFC5
:10EE3000014643F001031148A4F1100218F02FFC21
:10EE400084E723F4FF7323F001039BE700ED00E068
:10EE500030C60D00E0C40D0097E70D00C2E70D00BD
:10EE6000D9E70D00FAE70D0008E80D0027E80D00CE
:10EE700043E80D007CE80D0067E80D0095E80D0003
:10EE8000024A536943F010035361704700ED00E0FC
:10EE9000EFF30880EFF3098101B57246FFF708FF31
:10EEA00001BD00BF044800232021C2180133302BCC
:10EEB00082F80013F9D1704700E100E01DF06EF90F
:10EEC000202080F3118808484FF40261401880F335
:10EED0000988EFF314800221084380F31488BFF3FC
:10EEE0006F8FFFF7ABFC0000C0450020064B9B680E
:10EEF000834207D1EFF3058323B1044A536843F0FB
:10EF00008053536017F0E0BCF429002000ED00E0CE
:10EF1000024B034A0348012100F08CB80000042092
:10EF200000000020F0C90D00826E054B203A1A60E7
:10EF3000044A2021C3E901121846012100F084B8D7
:10EF40003016002000000B15F8B52A4F0E460021A0
:10EF5000B14214DA4468002C48D0C3B104F1FF3C3C
:10EF600014EA0C0F0DD0244A244B2548D21AD2089B
:10EF7000920142F0010218F07EFB6FF0150210467C
:10EF8000F8BD1F2CEFD905681CEA050FEBD1202C2A
:10EF9000D5B2D0F808C0026816D9B4F1004F15D820
:10EFA000013CB4FA84F4C4F11F046400072D4CEA58
:10EFB00004040DD9104A114B1248D21AD2089201FA
:10EFC00042F001022946D6E70824EFE73E24EDE7A8
:10EFD00022F01F022A4342F0100244F00104C7F855
:10EFE0009850C7F89C20C7F8A0406A1C01310C302B
:10EFF000AEE700BF00ED00E020C60D00E0C40D004C
:10F00000ACE80D00CFE80D00044B0522C3F89420B6
:10F01000BFF34F8FBFF36F8F704700BF00ED00E06D
:10F02000BFF35F8F024B0022C3F89420704700BFEC
:10F0300000ED00E010B5034C01232278FFF784FFB8
:10F04000207010BD762A002008B5094A00231278E6
:10F05000FFF77AFF10F1160F03D0064B00220728A6
:10F0600000DD08BDC3F89800C3F8A0200130F6E722
:10F07000762A002000ED00E014490868082810B541
:10F0800021D8FFF7CDFF124C49680022904201F1D0
:10F090000C0105D10F4B1870FFF7B6FF002010BD13
:10F0A000C4F8982051F80C3C23F01F03134343F09D
:10F0B0001003C4F89C3051F8043C43F00103C4F839
:10F0C000A0300132E2E74FF0FF30E8E7FCC90D0065
:10F0D00000ED00E0762A0020014B1860704700BF69
:10F0E000100200200239012902D8034B1B6818477F
:10F0F0004FF0FF30704700BF100200200FB407B57B
:10F1000004AB022153F8042B04480193FDF7BAFB2A
:10F1100003B05DF804EB04B0704700BFE78F0D004B
:10F1200010B54FF02003EFF3118083F31288BFF383
:10F130006F8F114A0123C2F840354FF080424FF0E3
:10F140008051C2F87835D1F83041082C08D1D1F877
:10F150003411052904D8094C615C09B1C2F838366C
:10F160004FF080430122C3F8802580F31188BFF35C
:10F170006F8F002010BD00BF00E0014008E90D00C6
:10F180004FF08043C0B2C3F81C05BFF34F8F054951
:10F19000054BCA6802F4E0621343CB60BFF34F8FA4
:10F1A00000BFFDE700ED00E00400FA0520B1034BCD
:10F1B000800143F001031847704700BF80C70D006E
:10F1C0000E4B402970B528BF40210D4C46181D46F6
:10F1D000B04203F1020304D1002305F811300748BF
:10F1E00070BD02781209A25C03F8022C10F8012B02
:10F1F00002F00F02A25C03F8012CE9E7952A002037
:10F200000EE90D0030B503788BB0044607AD032B33
:10F2100021D8DFE803F0021A1C1E1249284619F013
:10F2200082FE63780493A3780393E37802932379AF
:10F230000193637900930C4AA37905951E210B482D
:10F2400017F090FE09480BB030BD0949E6E70949BF
:10F25000E4E70949E2E7094A0A21284617F082FE55
:10F26000DFE700BF4FE00D0071E00D00772A0020BE
:10F2700056E00D005DE00D0067E00D001BFD0D0088
:10F2800070B5214CBFF35B8F2368BFF35B8FDA0748
:10F2900006460D4601D50C2070BD012931D8BFF3BB
:10F2A0005B8F54E8003F43F0020244E8002100294C
:10F2B000F7D1BFF35B8F9B07EDD41448314619F0AB
:10F2C0001DFF134806F1200119F018FFBFF35B8FF3
:10F2D00075B154E8003F43F0040344E80032002ACB
:10F2E000F7D1BFF35B8F0B4816F0DAFD0020D3E7B0
:10F2F00054E8003F23F0040344E80032002AF0D031
:10F30000F6E71220C8E700BF3C160020362B00208D
:10F31000562B0020E00800202DE9F0476A4B6B4D8A
:10F32000DFF8AC81DFF8AC91ED1AED0847464FF0FD
:10F33000FF324FF0FF33484616F0D8FDBFF35B8F26
:10F34000D8F80040BFF35B8F14F001045AD0DFF807
:10F3500088A1624C624E63485246214618F0DAFC9E
:10F36000E8BBA901604841F0010118F077F94FF0BE
:10F370001F0A4FF0FF324FF0FF33012000F080F9F9
:10F3800000F108060221044630461BF0E4FE3E234D
:10F39000037042234370012130461BF0DCFE08233A
:10F3A0000370412130461BF0D6FE064600F801AB43
:10F3B000BAF1000F1DD04022002119F008FEBFF362
:10F3C0005B8F57E8003F23F0010347E80032002A33
:10F3D000F7D1BFF35B8F204601F05EFAA7E720224A
:10F3E0003146204619F0D7FD0028B4D04FF0000A6E
:10F3F000BFE73C4919F082FE203106F1210019F0E7
:10F400007DFEDCE7BFF35B8FD8F80030BFF35B8F86
:10F410009B078CD53049334819F041FB011E38DA7F
:10F42000AA01324842F0010218F025F94FF0FF32EC
:10F430004FF0FF33012000F023F900F1080A022108
:10F44000064650461BF087FE3E230370222343707E
:10F45000012150461BF07FFE0923037021215046F5
:10F460001BF079FE034601303CBB1F221A70FF21BE
:10F47000202219F0ACFDBFF35B8F57E8003F23F06B
:10F48000020347E80032002AF7D1BFF35B8F304612
:10F49000A2E71249BFF35B8FD8F800301048BFF3E2
:10F4A0005B8F13F0040F01F120020B4B18BF0146D4
:10F4B000104618F07EFC0446B8E7002209491A708D
:10F4C00019F01CFED7E700BFE0C40D00D0C50D0049
:10F4D0003C160020E00800201CCA0D00162B00205E
:10F4E00082E90D00362B002026E90D004FE90D00C2
:10F4F00070B5067D044676B983681D8842F22602FF
:10F50000954245D00FD842F2010295424FD042F2C7
:10F5100025039D4213D02A4BD3F8543120461B6952
:10F52000BDE87040184742F25E039D42F3D10321CB
:10F5300008301BF02FFEA06890F840102EE0032149
:10F5400008301BF027FE204614F02CFBBFF35B8F26
:10F550001C4B1A68BFF35B8F920707D50C26314608
:10F5600042F2250019F0A6FD002070BDBFF35B8FAD
:10F5700053E8002F42F0010143E800100028F7D1C2
:10F58000BFF35B8FD307E9D40F4816F089FCE6E799
:10F59000032108301BF0FEFDA0683146FFF770FE26
:10F5A0000646204614F0FEFA31462846DAE7DA78B5
:10F5B00002F07F02DA701A7922F001021A71AAE7CA
:10F5C000080000203C160020E008002010B588B09C
:10F5D0000C4C0D4900220023CDE9062300230A220A
:10F5E000CDE90323CDE9013300934FF48F62074B3C
:10F5F000204616F0C9FA0649204608B0BDE810407A
:10F600001CF0D0B8300B00200033002019F30B00A1
:10F6100070E90D0030B4034608461A78012A13D069
:10F62000022A26D072B9154A02F1100452F8045B7E
:10F6300041F8045BA242F9D15B8812780A704373E7
:10F640001B0A837330BC70470C4A02F1100452F855
:10F65000045B41F8045BA242F9D15B6812780A703E
:10F66000C3F3072243731B0CC3731B0A8273037417
:10F67000E8E730BC1122194619F09EBCA2E90D0042
:10F6800038B5054605481BF004FD044620B10021AD
:10F6900008301BF01DFD2575204638BD200A0020CE
:10F6A0000B460B490246D1F8380110B520B9BDE828
:10F6B00010400120FFF7E4BF1BF01BFD01230021D8
:10F6C00003758181044608301BF002FD204610BD01
:10F6D0000800002070B504460F2C0D461046194650
:10F6E00005D80D2C12D9BDE87040FFF7D9BF132CF7
:10F6F0000CD10B481BF0CDFC044628B1002108308A
:10F700001BF0E6FC01232375204670BD02460B4624
:10F710000DB10448EEE7BDE870400120FFF7B0BF2F
:10F720004C0A00209C09002070B50B4D06460FCDF9
:10F730008EB001AC0FC40FCD0FC40FCD0FC40C2E73
:10F740002B6823609BBF0EAB03EB8606034856F87D
:10F75000340C0EB070BD00BFF0C60D00A9EA0D005C
:10F760000549064A83680648521AD2089201197858
:10F7700042F0020217F07FBFE0C40D00C8C50D00C3
:10F78000B1EA0D0038B583681A7872B9B3F8014050
:10F79000204602F0B5FC054640B9084B1A8822B94C
:10F7A0006FEA04506FEA1050188038BD012102F052
:10F7B000AFFC2846BDE838401AF064B8342A00206F
:10F7C000F8B585682E78EEB9B5F80170384602F0C4
:10F7D00097FC044660B90C4B0C4A0D48D21AD2086B
:10F7E0009201394642F00102BDE8F84017F043BFEC
:10F7F000EB780373314602F08BFC2046BDE8F840FD
:10F800001AF040B8F8BD00BFE0C40D00C8C50D0037
:10F81000D9EA0D00836810B51C88204602F070FC00
:10F8200060B9084A084B0948D21AD2089201214609
:10F8300042F00102BDE8104017F01DBFBDE81040C6
:10F840001AF020B8C8C50D00E0C40D00FFEA0D0095
:10F8500008B5012108301BF0A5FC064B064A0178CB
:10F860000648D21AD2089201BDE8084042F00102CF
:10F8700017F001BFE0C40D00C8C50D0023EB0D005B
:10F8800010B50A4A0A4C81898068A41AFFF798FCCF
:10F89000FDF784FFE408A40144F002040146224677
:10F8A0000448BDE8104017F0E6BE00BFE0C40D00FC
:10F8B000C8C50D0045EB0D0073B58568B5F801604E
:10F8C000304602F01DFC044668B9254B254A2648FF
:10F8D000D21AD208920142F00102314602B0BDE8CC
:10F8E000704017F0C8BE2B78CBB92A79EB7843EA81
:10F8F0000223A0F89E30AA796B7943EA0223A0F88C
:10F90000A430EB792A7A43EA0223A0F8A63002F069
:10F9100015FD204602B0BDE8704019F0B3BF1A2BA8
:10F92000F7D1C378012BF4D14FF48061043019F082
:10F9300084FC4305EDD4B4F8A030ADF80030B4F841
:10F94000A230ADF80230B4F8A830ADF80430694602
:10F95000B4F8AA30ADF80630204603F029F9D8E70C
:10F96000E0C40D00C8C50D00FFEA0D0013B50D4C35
:10F970000146052294F8670002F012FE78B90A4B9E
:10F98000586B1A8F009093F83A30ADF8042094F831
:10F9900067008DF806300422694602F001FE02B0CD
:10F9A00010BD00BF08000020F0C60D0073B502EBCB
:10F9B000C303054608461178A9421AD008329A4274
:10F9C000F9D18689164B174C80683146E41AFFF747
:10F9D000F7FBFDF7E3FEE408A40144F0020403464C
:10F9E000ADF8004010483246294617F071FE02B0CB
:10F9F00070BD818953788B420DD9094A094B0B4858
:10FA00009B1ADB089B0143F001032A4602B0BDE8C4
:10FA1000704017F044BE536802B0BDE8704018470C
:10FA2000E0C40D00C8C50D008BEB0D0069EB0D00A7
:10FA300010B50121044608301BF0B4FB2146034AEF
:10FA40000078BDE810400A23FFF7B0BFFCCA0D00E4
:10FA50002DE9FF4107469079DFF818810E461446DC
:10FA600013F0DCFF804516D0434B444DA07900973E
:10FA7000ED1AED08019013F0D1FFAD0145F002053C
:10FA8000CDE902082B463E480422694617F03CFEA9
:10FA900004B0BDE8F081204613F0C8FF394D4FF0A7
:10FAA0000C0808FB00504388BB4214D0324B334E45
:10FAB0002046F61A13F0BAFFF60808FB0055B60107
:10FAC00046F002066A8830483346394604B0BDE83D
:10FAD000F04117F0E4BD2D4FD7F8380120B114F0F4
